{"abi":[{"type":"constructor","inputs":[],"stateMutability":"nonpayable"},{"type":"function","name":"bytes32ToString","inputs":[{"name":"_bytes32","type":"bytes32","internalType":"bytes32"}],"outputs":[{"name":"","type":"string","internalType":"string"}],"stateMutability":"pure"},{"type":"function","name":"createMilestone","inputs":[{"name":"_name","type":"string","internalType":"string"},{"name":"_targetAmount","type":"uint256","internalType":"uint256"},{"name":"_deadline","type":"uint256","internalType":"uint256"}],"outputs":[],"stateMutability":"nonpayable"},{"type":"function","name":"deposit","inputs":[{"name":"_milestoneId","type":"uint256","internalType":"uint256"}],"outputs":[],"stateMutability":"payable"},{"type":"function","name":"emergencyWithdraw","inputs":[{"name":"_milestoneId","type":"uint256","internalType":"uint256"}],"outputs":[],"stateMutability":"nonpayable"},{"type":"function","name":"getMilestoneCount","inputs":[{"name":"_user","type":"address","internalType":"address"}],"outputs":[{"name":"","type":"uint256","internalType":"uint256"}],"stateMutability":"view"},{"type":"function","name":"getMilestoneDetails","inputs":[{"name":"_user","type":"address","internalType":"address"},{"name":"_milestoneId","type":"uint256","internalType":"uint256"}],"outputs":[{"name":"name","type":"bytes32","internalType":"bytes32"},{"name":"targetAmount","type":"uint256","internalType":"uint256"},{"name":"deadline","type":"uint256","internalType":"uint256"},{"name":"currentAmount","type":"uint256","internalType":"uint256"},{"name":"completed","type":"bool","internalType":"bool"},{"name":"active","type":"bool","internalType":"bool"}],"stateMutability":"view"},{"type":"function","name":"milestones","inputs":[{"name":"","type":"address","internalType":"address"},{"name":"","type":"uint256","internalType":"uint256"}],"outputs":[{"name":"name","type":"bytes32","internalType":"bytes32"},{"name":"targetAmount","type":"uint256","internalType":"uint256"},{"name":"deadline","type":"uint256","internalType":"uint256"},{"name":"currentAmount","type":"uint256","internalType":"uint256"},{"name":"status","type":"uint8","internalType":"uint8"}],"stateMutability":"view"},{"type":"function","name":"minSavingsAmount","inputs":[],"outputs":[{"name":"","type":"uint256","internalType":"uint256"}],"stateMutability":"view"},{"type":"function","name":"owner","inputs":[],"outputs":[{"name":"","type":"address","internalType":"address"}],"stateMutability":"view"},{"type":"function","name":"pause","inputs":[],"outputs":[],"stateMutability":"nonpayable"},{"type":"function","name":"paused","inputs":[],"outputs":[{"name":"","type":"bool","internalType":"bool"}],"stateMutability":"view"},{"type":"function","name":"platformFee","inputs":[],"outputs":[{"name":"","type":"uint256","internalType":"uint256"}],"stateMutability":"view"},{"type":"function","name":"renounceOwnership","inputs":[],"outputs":[],"stateMutability":"nonpayable"},{"type":"function","name":"setMinSavingsAmount","inputs":[{"name":"_newMinAmount","type":"uint256","internalType":"uint256"}],"outputs":[],"stateMutability":"nonpayable"},{"type":"function","name":"setPlatformFee","inputs":[{"name":"_newFee","type":"uint256","internalType":"uint256"}],"outputs":[],"stateMutability":"nonpayable"},{"type":"function","name":"transferOwnership","inputs":[{"name":"newOwner","type":"address","internalType":"address"}],"outputs":[],"stateMutability":"nonpayable"},{"type":"function","name":"unpause","inputs":[],"outputs":[],"stateMutability":"nonpayable"},{"type":"function","name":"users","inputs":[{"name":"","type":"address","internalType":"address"}],"outputs":[{"name":"exists","type":"bool","internalType":"bool"},{"name":"totalSavings","type":"uint256","internalType":"uint256"}],"stateMutability":"view"},{"type":"function","name":"withdraw","inputs":[{"name":"_milestoneId","type":"uint256","internalType":"uint256"}],"outputs":[],"stateMutability":"nonpayable"},{"type":"event","name":"Deposit","inputs":[{"name":"user","type":"address","indexed":true,"internalType":"address"},{"name":"milestoneId","type":"uint256","indexed":true,"internalType":"uint256"},{"name":"amount","type":"uint256","indexed":false,"internalType":"uint256"}],"anonymous":false},{"type":"event","name":"EmergencyWithdrawal","inputs":[{"name":"user","type":"address","indexed":true,"internalType":"address"},{"name":"milestoneId","type":"uint256","indexed":true,"internalType":"uint256"},{"name":"amount","type":"uint256","indexed":false,"internalType":"uint256"}],"anonymous":false},{"type":"event","name":"MilestoneCompleted","inputs":[{"name":"user","type":"address","indexed":true,"internalType":"address"},{"name":"milestoneId","type":"uint256","indexed":true,"internalType":"uint256"}],"anonymous":false},{"type":"event","name":"MilestoneCreated","inputs":[{"name":"user","type":"address","indexed":true,"internalType":"address"},{"name":"milestoneId","type":"uint256","indexed":true,"internalType":"uint256"},{"name":"name","type":"bytes32","indexed":false,"internalType":"bytes32"},{"name":"targetAmount","type":"uint256","indexed":false,"internalType":"uint256"},{"name":"deadline","type":"uint256","indexed":false,"internalType":"uint256"}],"anonymous":false},{"type":"event","name":"MilestoneFailed","inputs":[{"name":"user","type":"address","indexed":true,"internalType":"address"},{"name":"milestoneId","type":"uint256","indexed":true,"internalType":"uint256"}],"anonymous":false},{"type":"event","name":"OwnershipTransferred","inputs":[{"name":"previousOwner","type":"address","indexed":true,"internalType":"address"},{"name":"newOwner","type":"address","indexed":true,"internalType":"address"}],"anonymous":false},{"type":"event","name":"Paused","inputs":[{"name":"account","type":"address","indexed":false,"internalType":"address"}],"anonymous":false},{"type":"event","name":"Unpaused","inputs":[{"name":"account","type":"address","indexed":false,"internalType":"address"}],"anonymous":false},{"type":"event","name":"Withdrawal","inputs":[{"name":"user","type":"address","indexed":true,"internalType":"address"},{"name":"amount","type":"uint256","indexed":false,"internalType":"uint256"}],"anonymous":false},{"type":"error","name":"CannotWithdrawBeforeCompletionOrDeadline","inputs":[]},{"type":"error","name":"DeadlineMustBeInFuture","inputs":[]},{"type":"error","name":"EmergencyWithdrawalFailed","inputs":[]},{"type":"error","name":"EnforcedPause","inputs":[]},{"type":"error","name":"ExpectedPause","inputs":[]},{"type":"error","name":"FeeTooHigh","inputs":[]},{"type":"error","name":"FeeTransferFailed","inputs":[]},{"type":"error","name":"InvalidMilestoneName","inputs":[]},{"type":"error","name":"MilestoneAlreadyCompleted","inputs":[]},{"type":"error","name":"MilestoneDeadlinePassed","inputs":[]},{"type":"error","name":"MilestoneNotActive","inputs":[]},{"type":"error","name":"NoFundsToWithdraw","inputs":[]},{"type":"error","name":"OwnableInvalidOwner","inputs":[{"name":"owner","type":"address","internalType":"address"}]},{"type":"error","name":"OwnableUnauthorizedAccount","inputs":[{"name":"account","type":"address","internalType":"address"}]},{"type":"error","name":"PenaltyTransferFailed","inputs":[]},{"type":"error","name":"ReentrancyGuardReentrantCall","inputs":[]},{"type":"error","name":"TargetAmountTooLow","inputs":[]},{"type":"error","name":"UserDoesNotExist","inputs":[]},{"type":"error","name":"WithdrawalFailed","inputs":[]}],"bytecode":{"object":"0x6080604052662386f26fc10000600555603260065534801561001f575f5ffd5b503360015f819055505f73ffffffffffffffffffffffffffffffffffffffff168173ffffffffffffffffffffffffffffffffffffffff1603610098575f6040517f1e4fbdf700000000000000000000000000000000000000000000000000000000815260040161008f91906101c9565b60405180910390fd5b6100a7816100c760201b60201c565b505f600160146101000a81548160ff0219169083151502179055506101e2565b5f60015f9054906101000a900473ffffffffffffffffffffffffffffffffffffffff1690508160015f6101000a81548173ffffffffffffffffffffffffffffffffffffffff021916908373ffffffffffffffffffffffffffffffffffffffff1602179055508173ffffffffffffffffffffffffffffffffffffffff168173ffffffffffffffffffffffffffffffffffffffff167f8be0079c531659141344cd1fd0a4f28419497f9722a3daafe3b4186f6b6457e060405160405180910390a35050565b5f73ffffffffffffffffffffffffffffffffffffffff82169050919050565b5f6101b38261018a565b9050919050565b6101c3816101a9565b82525050565b5f6020820190506101dc5f8301846101ba565b92915050565b61223d806101ef5f395ff3fe608060405260043610610113575f3560e01c80638456cb591161009f578063b9bb927511610063578063b9bb927514610361578063c3ba7ecd14610389578063c7a892bf146103b3578063e833445e146103f3578063f2fde38b1461041b57610113565b80638456cb591461028c5780638da5cb5b146102a25780639201de55146102cc578063a87430ba14610308578063b6b55f251461034557610113565b8063435a81e7116100e6578063435a81e7146101a757806349e44687146101e35780635312ea8e146102245780635c975abb1461024c578063715018a61461027657610113565b806312e8e2c31461011757806326232a2e1461013f5780632e1a7d4d146101695780633f4ba83a14610191575b5f5ffd5b348015610122575f5ffd5b5061013d60048036038101906101389190611acc565b610443565b005b34801561014a575f5ffd5b50610153610491565b6040516101609190611b06565b60405180910390f35b348015610174575f5ffd5b5061018f600480360381019061018a9190611acc565b610497565b005b34801561019c575f5ffd5b506101a561087b565b005b3480156101b2575f5ffd5b506101cd60048036038101906101c89190611b79565b61088d565b6040516101da9190611b06565b60405180910390f35b3480156101ee575f5ffd5b5061020960048036038101906102049190611ba4565b6108d9565b60405161021b96959493929190611c14565b60405180910390f35b34801561022f575f5ffd5b5061024a60048036038101906102459190611acc565b610996565b005b348015610257575f5ffd5b50610260610dac565b60405161026d9190611c73565b60405180910390f35b348015610281575f5ffd5b5061028a610dc2565b005b348015610297575f5ffd5b506102a0610dd5565b005b3480156102ad575f5ffd5b506102b6610de7565b6040516102c39190611c9b565b60405180910390f35b3480156102d7575f5ffd5b506102f260048036038101906102ed9190611cde565b610e0f565b6040516102ff9190611d79565b60405180910390f35b348015610313575f5ffd5b5061032e60048036038101906103299190611b79565b610fa7565b60405161033c929190611d99565b60405180910390f35b61035f600480360381019061035a9190611acc565b610fd3565b005b34801561036c575f5ffd5b5061038760048036038101906103829190611eec565b6113e0565b005b348015610394575f5ffd5b5061039d6116c0565b6040516103aa9190611b06565b60405180910390f35b3480156103be575f5ffd5b506103d960048036038101906103d49190611ba4565b6116c6565b6040516103ea959493929190611f73565b60405180910390f35b3480156103fe575f5ffd5b5061041960048036038101906104149190611acc565b61170f565b005b348015610426575f5ffd5b50610441600480360381019061043c9190611b79565b611721565b005b61044b6117a5565b6101f4811115610487576040517fcd4e616700000000000000000000000000000000000000000000000000000000815260040160405180910390fd5b8060068190555050565b60065481565b61049f61182c565b6104a7611870565b60025f3373ffffffffffffffffffffffffffffffffffffffff1673ffffffffffffffffffffffffffffffffffffffff1681526020019081526020015f205f015f9054906101000a900460ff16610529576040517f907b361f00000000000000000000000000000000000000000000000000000000815260040160405180910390fd5b5f60035f3373ffffffffffffffffffffffffffffffffffffffff1673ffffffffffffffffffffffffffffffffffffffff1681526020019081526020015f205f8381526020019081526020015f209050600160ff16816004015f9054906101000a900460ff1660ff16141580156105b65750600260ff16816004015f9054906101000a900460ff1660ff1614155b156105ed576040517f3efb6c0600000000000000000000000000000000000000000000000000000000815260040160405180910390fd5b5f600260ff16826004015f9054906101000a900460ff1660ff1614806106165750816002015442115b90508061064f576040517fc2b5191e00000000000000000000000000000000000000000000000000000000815260040160405180910390fd5b5f826003015490505f8103610690576040517f67e3990d00000000000000000000000000000000000000000000000000000000815260040160405180910390fd5b5f83600301819055505f836004015f6101000a81548160ff021916908360ff1602179055508060025f3373ffffffffffffffffffffffffffffffffffffffff1673ffffffffffffffffffffffffffffffffffffffff1681526020019081526020015f206001015f8282546107049190611ff1565b92505081905550600260ff16836004015f9054906101000a900460ff1660ff16141580156107355750826002015442115b1561077f57833373ffffffffffffffffffffffffffffffffffffffff167fbbcc5e79fee84798e5944f8fea51bde4e3bf489a748643550231b4f82043463d60405160405180910390a35b5f3373ffffffffffffffffffffffffffffffffffffffff16826040516107a490612051565b5f6040518083038185875af1925050503d805f81146107de576040519150601f19603f3d011682016040523d82523d5f602084013e6107e3565b606091505b505090508061081e576040517f27fcd9d100000000000000000000000000000000000000000000000000000000815260040160405180910390fd5b3373ffffffffffffffffffffffffffffffffffffffff167f7fcf532c15f0a6db0bd6d0e038bea71d30d808c7d98cb3bf7268a95bf5081b65836040516108649190611b06565b60405180910390a2505050506108786118b1565b50565b6108836117a5565b61088b6118ba565b565b5f60025f8373ffffffffffffffffffffffffffffffffffffffff1673ffffffffffffffffffffffffffffffffffffffff1681526020019081526020015f20600201805490509050919050565b5f5f5f5f5f5f5f60035f8a73ffffffffffffffffffffffffffffffffffffffff1673ffffffffffffffffffffffffffffffffffffffff1681526020019081526020015f205f8981526020019081526020015f2090505f600260ff16826004015f9054906101000a900460ff1660ff161490505f600160ff16836004015f9054906101000a900460ff1660ff16149050825f015483600101548460020154856003015485859850985098509850985098505050509295509295509295565b61099e61182c565b6109a6611870565b60025f3373ffffffffffffffffffffffffffffffffffffffff1673ffffffffffffffffffffffffffffffffffffffff1681526020019081526020015f205f015f9054906101000a900460ff16610a28576040517f907b361f00000000000000000000000000000000000000000000000000000000815260040160405180910390fd5b5f60035f3373ffffffffffffffffffffffffffffffffffffffff1673ffffffffffffffffffffffffffffffffffffffff1681526020019081526020015f205f8381526020019081526020015f209050600160ff16816004015f9054906101000a900460ff1660ff1614610ac7576040517f3efb6c0600000000000000000000000000000000000000000000000000000000815260040160405180910390fd5b600260ff16816004015f9054906101000a900460ff1660ff1603610b17576040517f4cf723ed00000000000000000000000000000000000000000000000000000000815260040160405180910390fd5b5f816003015403610b54576040517f67e3990d00000000000000000000000000000000000000000000000000000000815260040160405180910390fd5b5f6127106101f48360030154610b6a9190612065565b610b7491906120d3565b90505f818360030154610b879190611ff1565b90505f83600301819055505f836004015f6101000a81548160ff021916908360ff160217905550826003015460025f3373ffffffffffffffffffffffffffffffffffffffff1673ffffffffffffffffffffffffffffffffffffffff1681526020019081526020015f206001015f828254610c019190611ff1565b925050819055505f610c11610de7565b73ffffffffffffffffffffffffffffffffffffffff1683604051610c3490612051565b5f6040518083038185875af1925050503d805f8114610c6e576040519150601f19603f3d011682016040523d82523d5f602084013e610c73565b606091505b5050905080610cae576040517f9d2d25b300000000000000000000000000000000000000000000000000000000815260040160405180910390fd5b5f3373ffffffffffffffffffffffffffffffffffffffff1683604051610cd390612051565b5f6040518083038185875af1925050503d805f8114610d0d576040519150601f19603f3d011682016040523d82523d5f602084013e610d12565b606091505b5050905080610d4d576040517f7c77b17000000000000000000000000000000000000000000000000000000000815260040160405180910390fd5b853373ffffffffffffffffffffffffffffffffffffffff167f56da9a5ae0bcf6e7c3fdd78a10550e7d0458de1c39bfb7f6e96a3e92dd344a6885604051610d949190611b06565b60405180910390a35050505050610da96118b1565b50565b5f600160149054906101000a900460ff16905090565b610dca6117a5565b610dd35f61191c565b565b610ddd6117a5565b610de56119df565b565b5f60015f9054906101000a900473ffffffffffffffffffffffffffffffffffffffff16905090565b60605f5f90505b60208160ff16108015610e6757505f60f81b838260ff1660208110610e3e57610e3d612103565b5b1a60f81b7effffffffffffffffffffffffffffffffffffffffffffffffffffffffffffff191614155b15610e7f578080610e7790612130565b915050610e16565b5f8160ff1667ffffffffffffffff811115610e9d57610e9c611dc8565b5b6040519080825280601f01601f191660200182016040528015610ecf5781602001600182028036833780820191505090505b5090505f91505b60208260ff16108015610f2757505f60f81b848360ff1660208110610efe57610efd612103565b5b1a60f81b7effffffffffffffffffffffffffffffffffffffffffffffffffffffffffffff191614155b15610f9d57838260ff1660208110610f4257610f41612103565b5b1a60f81b818360ff1681518110610f5c57610f5b612103565b5b60200101907effffffffffffffffffffffffffffffffffffffffffffffffffffffffffffff191690815f1a9053508180610f9590612130565b925050610ed6565b8092505050919050565b6002602052805f5260405f205f91509050805f015f9054906101000a900460ff16908060010154905082565b610fdb61182c565b610fe3611870565b60055434101561101f576040517f1617c01500000000000000000000000000000000000000000000000000000000815260040160405180910390fd5b60025f3373ffffffffffffffffffffffffffffffffffffffff1673ffffffffffffffffffffffffffffffffffffffff1681526020019081526020015f205f015f9054906101000a900460ff166110a1576040517f907b361f00000000000000000000000000000000000000000000000000000000815260040160405180910390fd5b5f60035f3373ffffffffffffffffffffffffffffffffffffffff1673ffffffffffffffffffffffffffffffffffffffff1681526020019081526020015f205f8381526020019081526020015f209050600160ff16816004015f9054906101000a900460ff1660ff1614611140576040517f3efb6c0600000000000000000000000000000000000000000000000000000000815260040160405180910390fd5b600260ff16816004015f9054906101000a900460ff1660ff1603611190576040517f4cf723ed00000000000000000000000000000000000000000000000000000000815260040160405180910390fd5b80600201544211156111ce576040517f905d042100000000000000000000000000000000000000000000000000000000815260040160405180910390fd5b5f612710600654346111e09190612065565b6111ea91906120d3565b90505f81346111f99190611ff1565b905080836003015f82825461120e9190612158565b925050819055508060025f3373ffffffffffffffffffffffffffffffffffffffff1673ffffffffffffffffffffffffffffffffffffffff1681526020019081526020015f206001015f8282546112649190612158565b925050819055505f611274610de7565b73ffffffffffffffffffffffffffffffffffffffff168360405161129790612051565b5f6040518083038185875af1925050503d805f81146112d1576040519150601f19603f3d011682016040523d82523d5f602084013e6112d6565b606091505b5050905080611311576040517f4033e4e300000000000000000000000000000000000000000000000000000000815260040160405180910390fd5b843373ffffffffffffffffffffffffffffffffffffffff167f90890809c654f11d6e72a28fa60149770a0d11ec6c92319d6ceb2bb0a4ea1a15846040516113589190611b06565b60405180910390a383600101548460030154106113d1576002846004015f6101000a81548160ff021916908360ff160217905550843373ffffffffffffffffffffffffffffffffffffffff167fcf2fa48ea32f82bfaeea61fff946572d9c3cf6f6d756cdbfe114273febd0787860405160405180910390a35b505050506113dd6118b1565b50565b6113e8611870565b600554821015611424576040517f1617c01500000000000000000000000000000000000000000000000000000000815260040160405180910390fd5b42811161145d576040517f0642ce7700000000000000000000000000000000000000000000000000000000815260040160405180910390fd5b5f8390505f81511480611471575060208151115b156114a8576040517f25e9df4100000000000000000000000000000000000000000000000000000000815260040160405180910390fd5b5f6020850151905060025f3373ffffffffffffffffffffffffffffffffffffffff1673ffffffffffffffffffffffffffffffffffffffff1681526020019081526020015f205f015f9054906101000a900460ff1661155857600160025f3373ffffffffffffffffffffffffffffffffffffffff1673ffffffffffffffffffffffffffffffffffffffff1681526020019081526020015f205f015f6101000a81548160ff0219169083151502179055505b5f60045f81548092919061156b9061218b565b9190505590505f60035f3373ffffffffffffffffffffffffffffffffffffffff1673ffffffffffffffffffffffffffffffffffffffff1681526020019081526020015f205f8381526020019081526020015f20905082815f01819055508581600101819055508481600201819055505f81600301819055506001816004015f6101000a81548160ff021916908360ff16021790555060025f3373ffffffffffffffffffffffffffffffffffffffff1673ffffffffffffffffffffffffffffffffffffffff1681526020019081526020015f2060020182908060018154018082558091505060019003905f5260205f20015f9091909190915055813373ffffffffffffffffffffffffffffffffffffffff167f39fa71cc54a18e3cffc27fd7dce947a9b5dd39d376e98eab0ccff7ac7756685c8589896040516116af939291906121d2565b60405180910390a350505050505050565b60055481565b6003602052815f5260405f20602052805f5260405f205f9150915050805f015490806001015490806002015490806003015490806004015f9054906101000a900460ff16905085565b6117176117a5565b8060058190555050565b6117296117a5565b5f73ffffffffffffffffffffffffffffffffffffffff168173ffffffffffffffffffffffffffffffffffffffff1603611799575f6040517f1e4fbdf70000000000000000000000000000000000000000000000000000000081526004016117909190611c9b565b60405180910390fd5b6117a28161191c565b50565b6117ad611a41565b73ffffffffffffffffffffffffffffffffffffffff166117cb610de7565b73ffffffffffffffffffffffffffffffffffffffff161461182a576117ee611a41565b6040517f118cdaa70000000000000000000000000000000000000000000000000000000081526004016118219190611c9b565b60405180910390fd5b565b60025f5403611867576040517f3ee5aeb500000000000000000000000000000000000000000000000000000000815260040160405180910390fd5b60025f81905550565b611878610dac565b156118af576040517fd93c066500000000000000000000000000000000000000000000000000000000815260040160405180910390fd5b565b60015f81905550565b6118c2611a48565b5f600160146101000a81548160ff0219169083151502179055507f5db9ee0a495bf2e6ff9c91a7834c1ba4fdd244a5e8aa4e537bd38aeae4b073aa611905611a41565b6040516119129190611c9b565b60405180910390a1565b5f60015f9054906101000a900473ffffffffffffffffffffffffffffffffffffffff1690508160015f6101000a81548173ffffffffffffffffffffffffffffffffffffffff021916908373ffffffffffffffffffffffffffffffffffffffff1602179055508173ffffffffffffffffffffffffffffffffffffffff168173ffffffffffffffffffffffffffffffffffffffff167f8be0079c531659141344cd1fd0a4f28419497f9722a3daafe3b4186f6b6457e060405160405180910390a35050565b6119e7611870565b60018060146101000a81548160ff0219169083151502179055507f62e78cea01bee320cd4e420270b5ea74000d11b0c9f74754ebdbfc544b05a258611a2a611a41565b604051611a379190611c9b565b60405180910390a1565b5f33905090565b611a50610dac565b611a86576040517f8dfc202b00000000000000000000000000000000000000000000000000000000815260040160405180910390fd5b565b5f604051905090565b5f5ffd5b5f5ffd5b5f819050919050565b611aab81611a99565b8114611ab5575f5ffd5b50565b5f81359050611ac681611aa2565b92915050565b5f60208284031215611ae157611ae0611a91565b5b5f611aee84828501611ab8565b91505092915050565b611b0081611a99565b82525050565b5f602082019050611b195f830184611af7565b92915050565b5f73ffffffffffffffffffffffffffffffffffffffff82169050919050565b5f611b4882611b1f565b9050919050565b611b5881611b3e565b8114611b62575f5ffd5b50565b5f81359050611b7381611b4f565b92915050565b5f60208284031215611b8e57611b8d611a91565b5b5f611b9b84828501611b65565b91505092915050565b5f5f60408385031215611bba57611bb9611a91565b5b5f611bc785828601611b65565b9250506020611bd885828601611ab8565b9150509250929050565b5f819050919050565b611bf481611be2565b82525050565b5f8115159050919050565b611c0e81611bfa565b82525050565b5f60c082019050611c275f830189611beb565b611c346020830188611af7565b611c416040830187611af7565b611c4e6060830186611af7565b611c5b6080830185611c05565b611c6860a0830184611c05565b979650505050505050565b5f602082019050611c865f830184611c05565b92915050565b611c9581611b3e565b82525050565b5f602082019050611cae5f830184611c8c565b92915050565b611cbd81611be2565b8114611cc7575f5ffd5b50565b5f81359050611cd881611cb4565b92915050565b5f60208284031215611cf357611cf2611a91565b5b5f611d0084828501611cca565b91505092915050565b5f81519050919050565b5f82825260208201905092915050565b8281835e5f83830152505050565b5f601f19601f8301169050919050565b5f611d4b82611d09565b611d558185611d13565b9350611d65818560208601611d23565b611d6e81611d31565b840191505092915050565b5f6020820190508181035f830152611d918184611d41565b905092915050565b5f604082019050611dac5f830185611c05565b611db96020830184611af7565b9392505050565b5f5ffd5b5f5ffd5b7f4e487b71000000000000000000000000000000000000000000000000000000005f52604160045260245ffd5b611dfe82611d31565b810181811067ffffffffffffffff82111715611e1d57611e1c611dc8565b5b80604052505050565b5f611e2f611a88565b9050611e3b8282611df5565b919050565b5f67ffffffffffffffff821115611e5a57611e59611dc8565b5b611e6382611d31565b9050602081019050919050565b828183375f83830152505050565b5f611e90611e8b84611e40565b611e26565b905082815260208101848484011115611eac57611eab611dc4565b5b611eb7848285611e70565b509392505050565b5f82601f830112611ed357611ed2611dc0565b5b8135611ee3848260208601611e7e565b91505092915050565b5f5f5f60608486031215611f0357611f02611a91565b5b5f84013567ffffffffffffffff811115611f2057611f1f611a95565b5b611f2c86828701611ebf565b9350506020611f3d86828701611ab8565b9250506040611f4e86828701611ab8565b9150509250925092565b5f60ff82169050919050565b611f6d81611f58565b82525050565b5f60a082019050611f865f830188611beb565b611f936020830187611af7565b611fa06040830186611af7565b611fad6060830185611af7565b611fba6080830184611f64565b9695505050505050565b7f4e487b71000000000000000000000000000000000000000000000000000000005f52601160045260245ffd5b5f611ffb82611a99565b915061200683611a99565b925082820390508181111561201e5761201d611fc4565b5b92915050565b5f81905092915050565b50565b5f61203c5f83612024565b91506120478261202e565b5f82019050919050565b5f61205b82612031565b9150819050919050565b5f61206f82611a99565b915061207a83611a99565b925082820261208881611a99565b9150828204841483151761209f5761209e611fc4565b5b5092915050565b7f4e487b71000000000000000000000000000000000000000000000000000000005f52601260045260245ffd5b5f6120dd82611a99565b91506120e883611a99565b9250826120f8576120f76120a6565b5b828204905092915050565b7f4e487b71000000000000000000000000000000000000000000000000000000005f52603260045260245ffd5b5f61213a82611f58565b915060ff820361214d5761214c611fc4565b5b600182019050919050565b5f61216282611a99565b915061216d83611a99565b925082820190508082111561218557612184611fc4565b5b92915050565b5f61219582611a99565b91507fffffffffffffffffffffffffffffffffffffffffffffffffffffffffffffffff82036121c7576121c6611fc4565b5b600182019050919050565b5f6060820190506121e55f830186611beb565b6121f26020830185611af7565b6121ff6040830184611af7565b94935050505056fea2646970667358221220cf0adcf39c738a90c1b87b3fd14af0d7f97ab6f585d8638b4aec5c208a19ca7864736f6c634300081c0033","linkReferences":{}},"methodIdentifiers":{"bytes32ToString(bytes32)":"9201de55","createMilestone(string,uint256,uint256)":"b9bb9275","deposit(uint256)":"b6b55f25","emergencyWithdraw(uint256)":"5312ea8e","getMilestoneCount(address)":"435a81e7","getMilestoneDetails(address,uint256)":"49e44687","milestones(address,uint256)":"c7a892bf","minSavingsAmount()":"c3ba7ecd","owner()":"8da5cb5b","pause()":"8456cb59","paused()":"5c975abb","platformFee()":"26232a2e","renounceOwnership()":"715018a6","setMinSavingsAmount(uint256)":"e833445e","setPlatformFee(uint256)":"12e8e2c3","transferOwnership(address)":"f2fde38b","unpause()":"3f4ba83a","users(address)":"a87430ba","withdraw(uint256)":"2e1a7d4d"},"id":25}