{"abi":[{"type":"constructor","inputs":[],"stateMutability":"nonpayable"},{"type":"function","name":"addAllowedToken","inputs":[{"name":"_tokenAddress","type":"address","internalType":"address"}],"outputs":[],"stateMutability":"nonpayable"},{"type":"function","name":"allowedTokens","inputs":[{"name":"","type":"address","internalType":"address"}],"outputs":[{"name":"","type":"bool","internalType":"bool"}],"stateMutability":"view"},{"type":"function","name":"bytes32ToString","inputs":[{"name":"_bytes32","type":"bytes32","internalType":"bytes32"}],"outputs":[{"name":"","type":"string","internalType":"string"}],"stateMutability":"pure"},{"type":"function","name":"createMilestone","inputs":[{"name":"_name","type":"bytes32","internalType":"bytes32"},{"name":"_targetAmount","type":"uint256","internalType":"uint256"},{"name":"_deadline","type":"uint256","internalType":"uint256"},{"name":"_tokenAddress","type":"address","internalType":"address"},{"name":"_milestoneType","type":"uint8","internalType":"uint8"},{"name":"_fixedAmount","type":"uint256","internalType":"uint256"}],"outputs":[],"stateMutability":"nonpayable"},{"type":"function","name":"deposit","inputs":[{"name":"_milestoneId","type":"uint256","internalType":"uint256"}],"outputs":[],"stateMutability":"payable"},{"type":"function","name":"depositToken","inputs":[{"name":"_milestoneId","type":"uint256","internalType":"uint256"},{"name":"_amount","type":"uint256","internalType":"uint256"}],"outputs":[],"stateMutability":"nonpayable"},{"type":"function","name":"emergencyWithdraw","inputs":[{"name":"_milestoneId","type":"uint256","internalType":"uint256"}],"outputs":[],"stateMutability":"nonpayable"},{"type":"function","name":"getMilestoneCount","inputs":[{"name":"_user","type":"address","internalType":"address"}],"outputs":[{"name":"","type":"uint256","internalType":"uint256"}],"stateMutability":"view"},{"type":"function","name":"getMilestoneDetails","inputs":[{"name":"_user","type":"address","internalType":"address"},{"name":"_milestoneId","type":"uint256","internalType":"uint256"}],"outputs":[{"name":"name","type":"bytes32","internalType":"bytes32"},{"name":"targetAmount","type":"uint256","internalType":"uint256"},{"name":"deadline","type":"uint256","internalType":"uint256"},{"name":"currentAmount","type":"uint256","internalType":"uint256"},{"name":"completed","type":"bool","internalType":"bool"},{"name":"active","type":"bool","internalType":"bool"},{"name":"tokenAddress","type":"address","internalType":"address"},{"name":"milestoneType","type":"uint8","internalType":"uint8"},{"name":"fixedAmount","type":"uint256","internalType":"uint256"}],"stateMutability":"view"},{"type":"function","name":"getUserTokenSavings","inputs":[{"name":"_user","type":"address","internalType":"address"},{"name":"_tokenAddress","type":"address","internalType":"address"}],"outputs":[{"name":"","type":"uint256","internalType":"uint256"}],"stateMutability":"view"},{"type":"function","name":"isTokenAllowed","inputs":[{"name":"_tokenAddress","type":"address","internalType":"address"}],"outputs":[{"name":"","type":"bool","internalType":"bool"}],"stateMutability":"view"},{"type":"function","name":"milestones","inputs":[{"name":"","type":"address","internalType":"address"},{"name":"","type":"uint256","internalType":"uint256"}],"outputs":[{"name":"name","type":"bytes32","internalType":"bytes32"},{"name":"targetAmount","type":"uint256","internalType":"uint256"},{"name":"deadline","type":"uint256","internalType":"uint256"},{"name":"currentAmount","type":"uint256","internalType":"uint256"},{"name":"status","type":"uint8","internalType":"uint8"},{"name":"tokenAddress","type":"address","internalType":"address"},{"name":"milestoneType","type":"uint8","internalType":"uint8"},{"name":"fixedAmount","type":"uint256","internalType":"uint256"}],"stateMutability":"view"},{"type":"function","name":"minSavingsAmount","inputs":[],"outputs":[{"name":"","type":"uint256","internalType":"uint256"}],"stateMutability":"view"},{"type":"function","name":"owner","inputs":[],"outputs":[{"name":"","type":"address","internalType":"address"}],"stateMutability":"view"},{"type":"function","name":"pause","inputs":[],"outputs":[],"stateMutability":"nonpayable"},{"type":"function","name":"paused","inputs":[],"outputs":[{"name":"","type":"bool","internalType":"bool"}],"stateMutability":"view"},{"type":"function","name":"platformFee","inputs":[],"outputs":[{"name":"","type":"uint256","internalType":"uint256"}],"stateMutability":"view"},{"type":"function","name":"removeAllowedToken","inputs":[{"name":"_tokenAddress","type":"address","internalType":"address"}],"outputs":[],"stateMutability":"nonpayable"},{"type":"function","name":"renounceOwnership","inputs":[],"outputs":[],"stateMutability":"nonpayable"},{"type":"function","name":"setMinSavingsAmount","inputs":[{"name":"_newMinAmount","type":"uint256","internalType":"uint256"}],"outputs":[],"stateMutability":"nonpayable"},{"type":"function","name":"setPlatformFee","inputs":[{"name":"_newFee","type":"uint256","internalType":"uint256"}],"outputs":[],"stateMutability":"nonpayable"},{"type":"function","name":"setTreasuryAddress","inputs":[{"name":"_newTreasury","type":"address","internalType":"address"}],"outputs":[],"stateMutability":"nonpayable"},{"type":"function","name":"setWithdrawalPenalty","inputs":[{"name":"_newPenalty","type":"uint256","internalType":"uint256"}],"outputs":[],"stateMutability":"nonpayable"},{"type":"function","name":"transferOwnership","inputs":[{"name":"newOwner","type":"address","internalType":"address"}],"outputs":[],"stateMutability":"nonpayable"},{"type":"function","name":"treasuryAddress","inputs":[],"outputs":[{"name":"","type":"address","internalType":"address"}],"stateMutability":"view"},{"type":"function","name":"unpause","inputs":[],"outputs":[],"stateMutability":"nonpayable"},{"type":"function","name":"users","inputs":[{"name":"","type":"address","internalType":"address"}],"outputs":[{"name":"exists","type":"bool","internalType":"bool"},{"name":"totalSavings","type":"uint256","internalType":"uint256"}],"stateMutability":"view"},{"type":"function","name":"withdraw","inputs":[{"name":"_milestoneId","type":"uint256","internalType":"uint256"}],"outputs":[],"stateMutability":"nonpayable"},{"type":"function","name":"withdrawalPenalty","inputs":[],"outputs":[{"name":"","type":"uint256","internalType":"uint256"}],"stateMutability":"view"},{"type":"event","name":"Deposit","inputs":[{"name":"user","type":"address","indexed":true,"internalType":"address"},{"name":"milestoneId","type":"uint256","indexed":true,"internalType":"uint256"},{"name":"amount","type":"uint256","indexed":false,"internalType":"uint256"},{"name":"tokenAddress","type":"address","indexed":false,"internalType":"address"}],"anonymous":false},{"type":"event","name":"EmergencyWithdrawal","inputs":[{"name":"user","type":"address","indexed":true,"internalType":"address"},{"name":"milestoneId","type":"uint256","indexed":true,"internalType":"uint256"},{"name":"amount","type":"uint256","indexed":false,"internalType":"uint256"},{"name":"tokenAddress","type":"address","indexed":false,"internalType":"address"}],"anonymous":false},{"type":"event","name":"MilestoneCompleted","inputs":[{"name":"user","type":"address","indexed":true,"internalType":"address"},{"name":"milestoneId","type":"uint256","indexed":true,"internalType":"uint256"}],"anonymous":false},{"type":"event","name":"MilestoneCreated","inputs":[{"name":"user","type":"address","indexed":true,"internalType":"address"},{"name":"milestoneId","type":"uint256","indexed":true,"internalType":"uint256"},{"name":"name","type":"bytes32","indexed":false,"internalType":"bytes32"},{"name":"targetAmount","type":"uint256","indexed":false,"internalType":"uint256"},{"name":"deadline","type":"uint256","indexed":false,"internalType":"uint256"},{"name":"tokenAddress","type":"address","indexed":false,"internalType":"address"},{"name":"milestoneType","type":"uint8","indexed":false,"internalType":"uint8"},{"name":"fixedAmount","type":"uint256","indexed":false,"internalType":"uint256"}],"anonymous":false},{"type":"event","name":"MilestoneFailed","inputs":[{"name":"user","type":"address","indexed":true,"internalType":"address"},{"name":"milestoneId","type":"uint256","indexed":true,"internalType":"uint256"}],"anonymous":false},{"type":"event","name":"OwnershipTransferred","inputs":[{"name":"previousOwner","type":"address","indexed":true,"internalType":"address"},{"name":"newOwner","type":"address","indexed":true,"internalType":"address"}],"anonymous":false},{"type":"event","name":"Paused","inputs":[{"name":"account","type":"address","indexed":false,"internalType":"address"}],"anonymous":false},{"type":"event","name":"TokenAdded","inputs":[{"name":"tokenAddress","type":"address","indexed":true,"internalType":"address"}],"anonymous":false},{"type":"event","name":"TokenRemoved","inputs":[{"name":"tokenAddress","type":"address","indexed":true,"internalType":"address"}],"anonymous":false},{"type":"event","name":"TreasuryAddressUpdated","inputs":[{"name":"oldTreasury","type":"address","indexed":true,"internalType":"address"},{"name":"newTreasury","type":"address","indexed":true,"internalType":"address"}],"anonymous":false},{"type":"event","name":"Unpaused","inputs":[{"name":"account","type":"address","indexed":false,"internalType":"address"}],"anonymous":false},{"type":"event","name":"Withdrawal","inputs":[{"name":"user","type":"address","indexed":true,"internalType":"address"},{"name":"amount","type":"uint256","indexed":false,"internalType":"uint256"},{"name":"tokenAddress","type":"address","indexed":false,"internalType":"address"}],"anonymous":false},{"type":"event","name":"WithdrawalPenaltyUpdated","inputs":[{"name":"newPenalty","type":"uint256","indexed":false,"internalType":"uint256"}],"anonymous":false},{"type":"error","name":"CannotWithdrawBeforeCompletionOrDeadline","inputs":[]},{"type":"error","name":"DeadlineMustBeInFuture","inputs":[]},{"type":"error","name":"EmergencyWithdrawalFailed","inputs":[]},{"type":"error","name":"EnforcedPause","inputs":[]},{"type":"error","name":"ExpectedPause","inputs":[]},{"type":"error","name":"FeeTooHigh","inputs":[]},{"type":"error","name":"FeeTransferFailed","inputs":[]},{"type":"error","name":"InvalidFixedDepositAmount","inputs":[]},{"type":"error","name":"InvalidMilestoneName","inputs":[]},{"type":"error","name":"InvalidTokenAmount","inputs":[]},{"type":"error","name":"InvalidTokenTransfer","inputs":[]},{"type":"error","name":"MilestoneAlreadyCompleted","inputs":[]},{"type":"error","name":"MilestoneDeadlinePassed","inputs":[]},{"type":"error","name":"MilestoneNotActive","inputs":[]},{"type":"error","name":"NoFundsToWithdraw","inputs":[]},{"type":"error","name":"OnlyNativeTokenAllowed","inputs":[]},{"type":"error","name":"OwnableInvalidOwner","inputs":[{"name":"owner","type":"address","internalType":"address"}]},{"type":"error","name":"OwnableUnauthorizedAccount","inputs":[{"name":"account","type":"address","internalType":"address"}]},{"type":"error","name":"PenaltyTooHigh","inputs":[]},{"type":"error","name":"PenaltyTransferFailed","inputs":[]},{"type":"error","name":"ReentrancyGuardReentrantCall","inputs":[]},{"type":"error","name":"SafeERC20FailedOperation","inputs":[{"name":"token","type":"address","internalType":"address"}]},{"type":"error","name":"TargetAmountTooLow","inputs":[]},{"type":"error","name":"TokenNotAllowed","inputs":[]},{"type":"error","name":"UserDoesNotExist","inputs":[]},{"type":"error","name":"WithdrawalFailed","inputs":[]}],"bytecode":{"object":"0x6080604052662386f26fc1000060055560326006556101f4600755348015610025575f5ffd5b503360015f819055505f73ffffffffffffffffffffffffffffffffffffffff168173ffffffffffffffffffffffffffffffffffffffff160361009e575f6040517f1e4fbdf70000000000000000000000000000000000000000000000000000000081526004016100959190610264565b60405180910390fd5b6100ad8161016260201b60201c565b505f600160146101000a81548160ff021916908315150217905550600160085f5f73ffffffffffffffffffffffffffffffffffffffff1673ffffffffffffffffffffffffffffffffffffffff1681526020019081526020015f205f6101000a81548160ff0219169083151502179055503360095f6101000a81548173ffffffffffffffffffffffffffffffffffffffff021916908373ffffffffffffffffffffffffffffffffffffffff16021790555061027d565b5f60015f9054906101000a900473ffffffffffffffffffffffffffffffffffffffff1690508160015f6101000a81548173ffffffffffffffffffffffffffffffffffffffff021916908373ffffffffffffffffffffffffffffffffffffffff1602179055508173ffffffffffffffffffffffffffffffffffffffff168173ffffffffffffffffffffffffffffffffffffffff167f8be0079c531659141344cd1fd0a4f28419497f9722a3daafe3b4186f6b6457e060405160405180910390a35050565b5f73ffffffffffffffffffffffffffffffffffffffff82169050919050565b5f61024e82610225565b9050919050565b61025e81610244565b82525050565b5f6020820190506102775f830184610255565b92915050565b6137498061028a5f395ff3fe6080604052600436106101c1575f3560e01c806390469a9d116100f6578063c3ba7ecd11610094578063e833445e11610063578063e833445e14610613578063f2fde38b1461063b578063f9eaee0d14610663578063fd0e7ba91461069f576101c1565b8063c3ba7ecd14610540578063c5f956af1461056a578063c7a892bf14610594578063e744092e146105d7576101c1565b8063a2468c19116100d0578063a2468c1914610481578063a87430ba146104ab578063a9aa2fda146104e8578063b6b55f2514610524576101c1565b806390469a9d146103f55780639201de551461041d5780639d2d04d114610459576101c1565b80635312ea8e11610163578063715018a61161013d578063715018a6146103775780637faaa6c11461038d5780638456cb59146103b55780638da5cb5b146103cb576101c1565b80635312ea8e146102fd5780635c975abb146103255780636605bfda1461034f576101c1565b80633f4ba83a1161019f5780633f4ba83a1461023f5780634178617f14610255578063435a81e71461027d57806349e44687146102b9576101c1565b806312e8e2c3146101c557806326232a2e146101ed5780632e1a7d4d14610217575b5f5ffd5b3480156101d0575f5ffd5b506101eb60048036038101906101e69190612dd8565b6106c7565b005b3480156101f8575f5ffd5b50610201610715565b60405161020e9190612e12565b60405180910390f35b348015610222575f5ffd5b5061023d60048036038101906102389190612dd8565b61071b565b005b34801561024a575f5ffd5b50610253610c57565b005b348015610260575f5ffd5b5061027b60048036038101906102769190612e85565b610c69565b005b348015610288575f5ffd5b506102a3600480360381019061029e9190612e85565b610d7a565b6040516102b09190612e12565b60405180910390f35b3480156102c4575f5ffd5b506102df60048036038101906102da9190612eb0565b610dc6565b6040516102f499989796959493929190612f4a565b60405180910390f35b348015610308575f5ffd5b50610323600480360381019061031e9190612dd8565b610ecb565b005b348015610330575f5ffd5b50610339611470565b6040516103469190612fd5565b60405180910390f35b34801561035a575f5ffd5b5061037560048036038101906103709190612e85565b611486565b005b348015610382575f5ffd5b5061038b6115bf565b005b348015610398575f5ffd5b506103b360048036038101906103ae9190612dd8565b6115d2565b005b3480156103c0575f5ffd5b506103c9611657565b005b3480156103d6575f5ffd5b506103df611669565b6040516103ec9190612fee565b60405180910390f35b348015610400575f5ffd5b5061041b60048036038101906104169190612e85565b611691565b005b348015610428575f5ffd5b50610443600480360381019061043e9190613031565b6117a1565b60405161045091906130cc565b60405180910390f35b348015610464575f5ffd5b5061047f600480360381019061047a91906130ec565b611939565b005b34801561048c575f5ffd5b50610495611c5d565b6040516104a29190612e12565b60405180910390f35b3480156104b6575f5ffd5b506104d160048036038101906104cc9190612e85565b611c63565b6040516104df92919061312a565b60405180910390f35b3480156104f3575f5ffd5b5061050e60048036038101906105099190613151565b611c8f565b60405161051b9190612e12565b60405180910390f35b61053e60048036038101906105399190612dd8565b611d90565b005b34801561054b575f5ffd5b506105546120ab565b6040516105619190612e12565b60405180910390f35b348015610575575f5ffd5b5061057e6120b1565b60405161058b9190612fee565b60405180910390f35b34801561059f575f5ffd5b506105ba60048036038101906105b59190612eb0565b6120d6565b6040516105ce98979695949392919061318f565b60405180910390f35b3480156105e2575f5ffd5b506105fd60048036038101906105f89190612e85565b61215e565b60405161060a9190612fd5565b60405180910390f35b34801561061e575f5ffd5b5061063960048036038101906106349190612dd8565b61217b565b005b348015610646575f5ffd5b50610661600480360381019061065c9190612e85565b61218d565b005b34801561066e575f5ffd5b5061068960048036038101906106849190612e85565b612211565b6040516106969190612fd5565b60405180910390f35b3480156106aa575f5ffd5b506106c560048036038101906106c09190613235565b612263565b005b6106cf61266c565b6101f481111561070b576040517fcd4e616700000000000000000000000000000000000000000000000000000000815260040160405180910390fd5b8060068190555050565b60065481565b6107236126f3565b61072b612737565b60025f3373ffffffffffffffffffffffffffffffffffffffff1673ffffffffffffffffffffffffffffffffffffffff1681526020019081526020015f205f015f9054906101000a900460ff166107ad576040517f907b361f00000000000000000000000000000000000000000000000000000000815260040160405180910390fd5b5f60035f3373ffffffffffffffffffffffffffffffffffffffff1673ffffffffffffffffffffffffffffffffffffffff1681526020019081526020015f205f8381526020019081526020015f209050600160ff16816004015f9054906101000a900460ff1660ff161415801561083a5750600260ff16816004015f9054906101000a900460ff1660ff1614155b15610871576040517f3efb6c0600000000000000000000000000000000000000000000000000000000815260040160405180910390fd5b5f600260ff16826004015f9054906101000a900460ff1660ff16148061089a5750816002015442115b9050806108d3576040517fc2b5191e00000000000000000000000000000000000000000000000000000000815260040160405180910390fd5b5f826003015490505f8103610914576040517f67e3990d00000000000000000000000000000000000000000000000000000000815260040160405180910390fd5b5f83600301819055505f836004015f6101000a81548160ff021916908360ff1602179055505f8360040160019054906101000a900473ffffffffffffffffffffffffffffffffffffffff1690505f73ffffffffffffffffffffffffffffffffffffffff168173ffffffffffffffffffffffffffffffffffffffff16036109ef578160025f3373ffffffffffffffffffffffffffffffffffffffff1673ffffffffffffffffffffffffffffffffffffffff1681526020019081526020015f206001015f8282546109e391906132eb565b92505081905550610a81565b8160025f3373ffffffffffffffffffffffffffffffffffffffff1673ffffffffffffffffffffffffffffffffffffffff1681526020019081526020015f206003015f8373ffffffffffffffffffffffffffffffffffffffff1673ffffffffffffffffffffffffffffffffffffffff1681526020019081526020015f205f828254610a7991906132eb565b925050819055505b600260ff16846004015f9054906101000a900460ff1660ff1614158015610aab5750836002015442115b15610af557843373ffffffffffffffffffffffffffffffffffffffff167fbbcc5e79fee84798e5944f8fea51bde4e3bf489a748643550231b4f82043463d60405160405180910390a35b5f73ffffffffffffffffffffffffffffffffffffffff168173ffffffffffffffffffffffffffffffffffffffff1603610bcd575f3373ffffffffffffffffffffffffffffffffffffffff1683604051610b4d9061334b565b5f6040518083038185875af1925050503d805f8114610b87576040519150601f19603f3d011682016040523d82523d5f602084013e610b8c565b606091505b5050905080610bc7576040517f27fcd9d100000000000000000000000000000000000000000000000000000000815260040160405180910390fd5b50610bf9565b610bf833838373ffffffffffffffffffffffffffffffffffffffff166127789092919063ffffffff16565b5b3373ffffffffffffffffffffffffffffffffffffffff167e1a143d5b175701cb3246058ffac3d63945192075a926ff73a19930f09d587a8383604051610c4092919061335f565b60405180910390a250505050610c546127f7565b50565b610c5f61266c565b610c67612800565b565b610c7161266c565b5f73ffffffffffffffffffffffffffffffffffffffff168173ffffffffffffffffffffffffffffffffffffffff1603610cdf576040517f08c379a0000000000000000000000000000000000000000000000000000000008152600401610cd6906133d0565b60405180910390fd5b600160085f8373ffffffffffffffffffffffffffffffffffffffff1673ffffffffffffffffffffffffffffffffffffffff1681526020019081526020015f205f6101000a81548160ff0219169083151502179055508073ffffffffffffffffffffffffffffffffffffffff167f784c8f4dbf0ffedd6e72c76501c545a70f8b203b30a26ce542bf92ba87c248a460405160405180910390a250565b5f60025f8373ffffffffffffffffffffffffffffffffffffffff1673ffffffffffffffffffffffffffffffffffffffff1681526020019081526020015f20600201805490509050919050565b5f5f5f5f5f5f5f5f5f5f60035f8d73ffffffffffffffffffffffffffffffffffffffff1673ffffffffffffffffffffffffffffffffffffffff1681526020019081526020015f205f8c81526020019081526020015f2090505f600260ff16826004015f9054906101000a900460ff1660ff161490505f600160ff16836004015f9054906101000a900460ff1660ff16149050825f015483600101548460020154856003015485858860040160019054906101000a900473ffffffffffffffffffffffffffffffffffffffff168960040160159054906101000a900460ff168a600501549b509b509b509b509b509b509b509b509b505050509295985092959850929598565b610ed36126f3565b610edb612737565b60025f3373ffffffffffffffffffffffffffffffffffffffff1673ffffffffffffffffffffffffffffffffffffffff1681526020019081526020015f205f015f9054906101000a900460ff16610f5d576040517f907b361f00000000000000000000000000000000000000000000000000000000815260040160405180910390fd5b5f60035f3373ffffffffffffffffffffffffffffffffffffffff1673ffffffffffffffffffffffffffffffffffffffff1681526020019081526020015f205f8381526020019081526020015f209050600160ff16816004015f9054906101000a900460ff1660ff1614610ffc576040517f3efb6c0600000000000000000000000000000000000000000000000000000000815260040160405180910390fd5b600260ff16816004015f9054906101000a900460ff1660ff160361104c576040517f4cf723ed00000000000000000000000000000000000000000000000000000000815260040160405180910390fd5b5f816003015403611089576040517f67e3990d00000000000000000000000000000000000000000000000000000000815260040160405180910390fd5b5f612710600754836003015461109f91906133ee565b6110a9919061345c565b90505f8183600301546110bc91906132eb565b90505f83600301819055505f836004015f6101000a81548160ff021916908360ff1602179055505f8360040160019054906101000a900473ffffffffffffffffffffffffffffffffffffffff1690505f73ffffffffffffffffffffffffffffffffffffffff168173ffffffffffffffffffffffffffffffffffffffff16036112fe57836003015460025f3373ffffffffffffffffffffffffffffffffffffffff1673ffffffffffffffffffffffffffffffffffffffff1681526020019081526020015f206001015f82825461119191906132eb565b925050819055505f60095f9054906101000a900473ffffffffffffffffffffffffffffffffffffffff1673ffffffffffffffffffffffffffffffffffffffff16846040516111de9061334b565b5f6040518083038185875af1925050503d805f8114611218576040519150601f19603f3d011682016040523d82523d5f602084013e61121d565b606091505b5050905080611258576040517f9d2d25b300000000000000000000000000000000000000000000000000000000815260040160405180910390fd5b5f3373ffffffffffffffffffffffffffffffffffffffff168460405161127d9061334b565b5f6040518083038185875af1925050503d805f81146112b7576040519150601f19603f3d011682016040523d82523d5f602084013e6112bc565b606091505b50509050806112f7576040517f7c77b17000000000000000000000000000000000000000000000000000000000815260040160405180910390fd5b5050611410565b836003015460025f3373ffffffffffffffffffffffffffffffffffffffff1673ffffffffffffffffffffffffffffffffffffffff1681526020019081526020015f206003015f8373ffffffffffffffffffffffffffffffffffffffff1673ffffffffffffffffffffffffffffffffffffffff1681526020019081526020015f205f82825461138c91906132eb565b925050819055505f8190506113e360095f9054906101000a900473ffffffffffffffffffffffffffffffffffffffff16858373ffffffffffffffffffffffffffffffffffffffff166127789092919063ffffffff16565b61140e33848373ffffffffffffffffffffffffffffffffffffffff166127789092919063ffffffff16565b505b843373ffffffffffffffffffffffffffffffffffffffff167fcf625d6a8f55791770349133ec5dd126c4f4fe67e2db9a1a876f61812d68e409848460405161145992919061335f565b60405180910390a35050505061146d6127f7565b50565b5f600160149054906101000a900460ff16905090565b61148e61266c565b5f73ffffffffffffffffffffffffffffffffffffffff168173ffffffffffffffffffffffffffffffffffffffff16036114fc576040517f08c379a00000000000000000000000000000000000000000000000000000000081526004016114f3906134d6565b60405180910390fd5b5f60095f9054906101000a900473ffffffffffffffffffffffffffffffffffffffff1690508160095f6101000a81548173ffffffffffffffffffffffffffffffffffffffff021916908373ffffffffffffffffffffffffffffffffffffffff1602179055508173ffffffffffffffffffffffffffffffffffffffff168173ffffffffffffffffffffffffffffffffffffffff167f430359a6d97ced2b6f93c77a91e7ce9dfd43252eb91e916adba170485cd8a6a460405160405180910390a35050565b6115c761266c565b6115d05f612862565b565b6115da61266c565b6107d0811115611616576040517f516e7f3800000000000000000000000000000000000000000000000000000000815260040160405180910390fd5b806007819055507f9d5ddc6fdb90a6647fe4981fdf08b45a5f9ef6d8ea960de27bef48fb481325928160405161164c9190612e12565b60405180910390a150565b61165f61266c565b611667612925565b565b5f60015f9054906101000a900473ffffffffffffffffffffffffffffffffffffffff16905090565b61169961266c565b5f73ffffffffffffffffffffffffffffffffffffffff168173ffffffffffffffffffffffffffffffffffffffff1603611707576040517f08c379a00000000000000000000000000000000000000000000000000000000081526004016116fe9061353e565b60405180910390fd5b5f60085f8373ffffffffffffffffffffffffffffffffffffffff1673ffffffffffffffffffffffffffffffffffffffff1681526020019081526020015f205f6101000a81548160ff0219169083151502179055508073ffffffffffffffffffffffffffffffffffffffff167f4c910b69fe65a61f7531b9c5042b2329ca7179c77290aa7e2eb3afa3c8511fd360405160405180910390a250565b60605f5f90505b60208160ff161080156117f957505f60f81b838260ff16602081106117d0576117cf61355c565b5b1a60f81b7effffffffffffffffffffffffffffffffffffffffffffffffffffffffffffff191614155b1561181157808061180990613589565b9150506117a8565b5f8160ff1667ffffffffffffffff81111561182f5761182e6135b1565b5b6040519080825280601f01601f1916602001820160405280156118615781602001600182028036833780820191505090505b5090505f91505b60208260ff161080156118b957505f60f81b848360ff16602081106118905761188f61355c565b5b1a60f81b7effffffffffffffffffffffffffffffffffffffffffffffffffffffffffffff191614155b1561192f57838260ff16602081106118d4576118d361355c565b5b1a60f81b818360ff16815181106118ee576118ed61355c565b5b60200101907effffffffffffffffffffffffffffffffffffffffffffffffffffffffffffff191690815f1a905350818061192790613589565b925050611868565b8092505050919050565b6119416126f3565b611949612737565b5f60035f3373ffffffffffffffffffffffffffffffffffffffff1673ffffffffffffffffffffffffffffffffffffffff1681526020019081526020015f205f8481526020019081526020015f2090505f8160040160019054906101000a900473ffffffffffffffffffffffffffffffffffffffff1690505f73ffffffffffffffffffffffffffffffffffffffff168173ffffffffffffffffffffffffffffffffffffffff1603611a25576040517f289aef6900000000000000000000000000000000000000000000000000000000815260040160405180910390fd5b611a30338585612987565b5f60ff168260040160159054906101000a900460ff1660ff16148015611a5a575081600501548314155b15611a91576040517f2160733900000000000000000000000000000000000000000000000000000000815260040160405180910390fd5b5f61271060065485611aa391906133ee565b611aad919061345c565b90505f8185611abc91906132eb565b90505f839050611aef3330848473ffffffffffffffffffffffffffffffffffffffff16612b78909392919063ffffffff16565b5f831115611b4657611b453360095f9054906101000a900473ffffffffffffffffffffffffffffffffffffffff16858473ffffffffffffffffffffffffffffffffffffffff16612b78909392919063ffffffff16565b5b81856003015f828254611b5991906135de565b925050819055508160025f3373ffffffffffffffffffffffffffffffffffffffff1673ffffffffffffffffffffffffffffffffffffffff1681526020019081526020015f206003015f8673ffffffffffffffffffffffffffffffffffffffff1673ffffffffffffffffffffffffffffffffffffffff1681526020019081526020015f205f828254611bea91906135de565b92505081905550863373ffffffffffffffffffffffffffffffffffffffff167f02d7e648dd130fc184d383e55bb126ac4c9c60e8f94bf05acdf557ba2d540b478487604051611c3a92919061335f565b60405180910390a3611c4c3388612bfa565b5050505050611c596127f7565b5050565b60075481565b6002602052805f5260405f205f91509050805f015f9054906101000a900460ff16908060010154905082565b5f5f73ffffffffffffffffffffffffffffffffffffffff168273ffffffffffffffffffffffffffffffffffffffff1603611d0b5760025f8473ffffffffffffffffffffffffffffffffffffffff1673ffffffffffffffffffffffffffffffffffffffff1681526020019081526020015f20600101549050611d8a565b60025f8473ffffffffffffffffffffffffffffffffffffffff1673ffffffffffffffffffffffffffffffffffffffff1681526020019081526020015f206003015f8373ffffffffffffffffffffffffffffffffffffffff1673ffffffffffffffffffffffffffffffffffffffff1681526020019081526020015f205490505b92915050565b611d986126f3565b611da0612737565b5f60035f3373ffffffffffffffffffffffffffffffffffffffff1673ffffffffffffffffffffffffffffffffffffffff1681526020019081526020015f205f8381526020019081526020015f2090505f73ffffffffffffffffffffffffffffffffffffffff168160040160019054906101000a900473ffffffffffffffffffffffffffffffffffffffff1673ffffffffffffffffffffffffffffffffffffffff1614611e78576040517fb1940fa600000000000000000000000000000000000000000000000000000000815260040160405180910390fd5b611e83338334612987565b5f60ff168160040160159054906101000a900460ff1660ff16148015611ead575080600501543414155b15611ee4576040517f2160733900000000000000000000000000000000000000000000000000000000815260040160405180910390fd5b5f61271060065434611ef691906133ee565b611f00919061345c565b90505f8134611f0f91906132eb565b905080836003015f828254611f2491906135de565b925050819055508060025f3373ffffffffffffffffffffffffffffffffffffffff1673ffffffffffffffffffffffffffffffffffffffff1681526020019081526020015f206001015f828254611f7a91906135de565b925050819055505f60095f9054906101000a900473ffffffffffffffffffffffffffffffffffffffff1673ffffffffffffffffffffffffffffffffffffffff1683604051611fc79061334b565b5f6040518083038185875af1925050503d805f8114612001576040519150601f19603f3d011682016040523d82523d5f602084013e612006565b606091505b5050905080612041576040517f4033e4e300000000000000000000000000000000000000000000000000000000815260040160405180910390fd5b843373ffffffffffffffffffffffffffffffffffffffff167f02d7e648dd130fc184d383e55bb126ac4c9c60e8f94bf05acdf557ba2d540b47845f60405161208a92919061335f565b60405180910390a361209c3386612bfa565b505050506120a86127f7565b50565b60055481565b60095f9054906101000a900473ffffffffffffffffffffffffffffffffffffffff1681565b6003602052815f5260405f20602052805f5260405f205f9150915050805f015490806001015490806002015490806003015490806004015f9054906101000a900460ff16908060040160019054906101000a900473ffffffffffffffffffffffffffffffffffffffff16908060040160159054906101000a900460ff16908060050154905088565b6008602052805f5260405f205f915054906101000a900460ff1681565b61218361266c565b8060058190555050565b61219561266c565b5f73ffffffffffffffffffffffffffffffffffffffff168173ffffffffffffffffffffffffffffffffffffffff1603612205575f6040517f1e4fbdf70000000000000000000000000000000000000000000000000000000081526004016121fc9190612fee565b60405180910390fd5b61220e81612862565b50565b5f60085f8373ffffffffffffffffffffffffffffffffffffffff1673ffffffffffffffffffffffffffffffffffffffff1681526020019081526020015f205f9054906101000a900460ff169050919050565b61226b612737565b6005548510156122a7576040517f1617c01500000000000000000000000000000000000000000000000000000000815260040160405180910390fd5b4284116122e0576040517f0642ce7700000000000000000000000000000000000000000000000000000000815260040160405180910390fd5b60085f8473ffffffffffffffffffffffffffffffffffffffff1673ffffffffffffffffffffffffffffffffffffffff1681526020019081526020015f205f9054906101000a900460ff16612360576040517fa29c498600000000000000000000000000000000000000000000000000000000815260040160405180910390fd5b5f60ff168260ff1614801561237457505f81145b156123ab576040517f5f06284300000000000000000000000000000000000000000000000000000000815260040160405180910390fd5b600160ff168260ff1611156123ec576040517f25e9df4100000000000000000000000000000000000000000000000000000000815260040160405180910390fd5b60025f3373ffffffffffffffffffffffffffffffffffffffff1673ffffffffffffffffffffffffffffffffffffffff1681526020019081526020015f205f015f9054906101000a900460ff1661249457600160025f3373ffffffffffffffffffffffffffffffffffffffff1673ffffffffffffffffffffffffffffffffffffffff1681526020019081526020015f205f015f6101000a81548160ff0219169083151502179055505b5f60045f8154809291906124a790613611565b9190505590505f60035f3373ffffffffffffffffffffffffffffffffffffffff1673ffffffffffffffffffffffffffffffffffffffff1681526020019081526020015f205f8381526020019081526020015f20905087815f01819055508681600101819055508581600201819055505f81600301819055506001816004015f6101000a81548160ff021916908360ff160217905550848160040160016101000a81548173ffffffffffffffffffffffffffffffffffffffff021916908373ffffffffffffffffffffffffffffffffffffffff160217905550838160040160156101000a81548160ff021916908360ff16021790555082816005018190555060025f3373ffffffffffffffffffffffffffffffffffffffff1673ffffffffffffffffffffffffffffffffffffffff1681526020019081526020015f2060020182908060018154018082558091505060019003905f5260205f20015f9091909190915055813373ffffffffffffffffffffffffffffffffffffffff167f89b0a9a253dd0283d8321f6ffc369bfd63dd5662180eee5d9c91646bbbbe08398a8a8a8a8a8a60405161265a96959493929190613658565b60405180910390a35050505050505050565b612674612cbf565b73ffffffffffffffffffffffffffffffffffffffff16612692611669565b73ffffffffffffffffffffffffffffffffffffffff16146126f1576126b5612cbf565b6040517f118cdaa70000000000000000000000000000000000000000000000000000000081526004016126e89190612fee565b60405180910390fd5b565b60025f540361272e576040517f3ee5aeb500000000000000000000000000000000000000000000000000000000815260040160405180910390fd5b60025f81905550565b61273f611470565b15612776576040517fd93c066500000000000000000000000000000000000000000000000000000000815260040160405180910390fd5b565b6127f2838473ffffffffffffffffffffffffffffffffffffffff1663a9059cbb85856040516024016127ab9291906136b7565b604051602081830303815290604052915060e01b6020820180517bffffffffffffffffffffffffffffffffffffffffffffffffffffffff8381831617835250505050612cc6565b505050565b60015f81905550565b612808612d61565b5f600160146101000a81548160ff0219169083151502179055507f5db9ee0a495bf2e6ff9c91a7834c1ba4fdd244a5e8aa4e537bd38aeae4b073aa61284b612cbf565b6040516128589190612fee565b60405180910390a1565b5f60015f9054906101000a900473ffffffffffffffffffffffffffffffffffffffff1690508160015f6101000a81548173ffffffffffffffffffffffffffffffffffffffff021916908373ffffffffffffffffffffffffffffffffffffffff1602179055508173ffffffffffffffffffffffffffffffffffffffff168173ffffffffffffffffffffffffffffffffffffffff167f8be0079c531659141344cd1fd0a4f28419497f9722a3daafe3b4186f6b6457e060405160405180910390a35050565b61292d612737565b60018060146101000a81548160ff0219169083151502179055507f62e78cea01bee320cd4e420270b5ea74000d11b0c9f74754ebdbfc544b05a258612970612cbf565b60405161297d9190612fee565b60405180910390a1565b6005548110156129c3576040517f1617c01500000000000000000000000000000000000000000000000000000000815260040160405180910390fd5b60025f8473ffffffffffffffffffffffffffffffffffffffff1673ffffffffffffffffffffffffffffffffffffffff1681526020019081526020015f205f015f9054906101000a900460ff16612a45576040517f907b361f00000000000000000000000000000000000000000000000000000000815260040160405180910390fd5b5f60035f8573ffffffffffffffffffffffffffffffffffffffff1673ffffffffffffffffffffffffffffffffffffffff1681526020019081526020015f205f8481526020019081526020015f209050600160ff16816004015f9054906101000a900460ff1660ff1614612ae4576040517f3efb6c0600000000000000000000000000000000000000000000000000000000815260040160405180910390fd5b600260ff16816004015f9054906101000a900460ff1660ff1603612b34576040517f4cf723ed00000000000000000000000000000000000000000000000000000000815260040160405180910390fd5b8060020154421115612b72576040517f905d042100000000000000000000000000000000000000000000000000000000815260040160405180910390fd5b50505050565b612bf4848573ffffffffffffffffffffffffffffffffffffffff166323b872dd868686604051602401612bad939291906136de565b604051602081830303815290604052915060e01b6020820180517bffffffffffffffffffffffffffffffffffffffffffffffffffffffff8381831617835250505050612cc6565b50505050565b5f60035f8473ffffffffffffffffffffffffffffffffffffffff1673ffffffffffffffffffffffffffffffffffffffff1681526020019081526020015f205f8381526020019081526020015f2090508060010154816003015410612cba576002816004015f6101000a81548160ff021916908360ff160217905550818373ffffffffffffffffffffffffffffffffffffffff167fcf2fa48ea32f82bfaeea61fff946572d9c3cf6f6d756cdbfe114273febd0787860405160405180910390a35b505050565b5f33905090565b5f5f60205f8451602086015f885af180612ce5576040513d5f823e3d81fd5b3d92505f519150505f8214612cfe576001811415612d19565b5f8473ffffffffffffffffffffffffffffffffffffffff163b145b15612d5b57836040517f5274afe7000000000000000000000000000000000000000000000000000000008152600401612d529190612fee565b60405180910390fd5b50505050565b612d69611470565b612d9f576040517f8dfc202b00000000000000000000000000000000000000000000000000000000815260040160405180910390fd5b565b5f5ffd5b5f819050919050565b612db781612da5565b8114612dc1575f5ffd5b50565b5f81359050612dd281612dae565b92915050565b5f60208284031215612ded57612dec612da1565b5b5f612dfa84828501612dc4565b91505092915050565b612e0c81612da5565b82525050565b5f602082019050612e255f830184612e03565b92915050565b5f73ffffffffffffffffffffffffffffffffffffffff82169050919050565b5f612e5482612e2b565b9050919050565b612e6481612e4a565b8114612e6e575f5ffd5b50565b5f81359050612e7f81612e5b565b92915050565b5f60208284031215612e9a57612e99612da1565b5b5f612ea784828501612e71565b91505092915050565b5f5f60408385031215612ec657612ec5612da1565b5b5f612ed385828601612e71565b9250506020612ee485828601612dc4565b9150509250929050565b5f819050919050565b612f0081612eee565b82525050565b5f8115159050919050565b612f1a81612f06565b82525050565b612f2981612e4a565b82525050565b5f60ff82169050919050565b612f4481612f2f565b82525050565b5f61012082019050612f5e5f83018c612ef7565b612f6b602083018b612e03565b612f78604083018a612e03565b612f856060830189612e03565b612f926080830188612f11565b612f9f60a0830187612f11565b612fac60c0830186612f20565b612fb960e0830185612f3b565b612fc7610100830184612e03565b9a9950505050505050505050565b5f602082019050612fe85f830184612f11565b92915050565b5f6020820190506130015f830184612f20565b92915050565b61301081612eee565b811461301a575f5ffd5b50565b5f8135905061302b81613007565b92915050565b5f6020828403121561304657613045612da1565b5b5f6130538482850161301d565b91505092915050565b5f81519050919050565b5f82825260208201905092915050565b8281835e5f83830152505050565b5f601f19601f8301169050919050565b5f61309e8261305c565b6130a88185613066565b93506130b8818560208601613076565b6130c181613084565b840191505092915050565b5f6020820190508181035f8301526130e48184613094565b905092915050565b5f5f6040838503121561310257613101612da1565b5b5f61310f85828601612dc4565b925050602061312085828601612dc4565b9150509250929050565b5f60408201905061313d5f830185612f11565b61314a6020830184612e03565b9392505050565b5f5f6040838503121561316757613166612da1565b5b5f61317485828601612e71565b925050602061318585828601612e71565b9150509250929050565b5f610100820190506131a35f83018b612ef7565b6131b0602083018a612e03565b6131bd6040830189612e03565b6131ca6060830188612e03565b6131d76080830187612f3b565b6131e460a0830186612f20565b6131f160c0830185612f3b565b6131fe60e0830184612e03565b9998505050505050505050565b61321481612f2f565b811461321e575f5ffd5b50565b5f8135905061322f8161320b565b92915050565b5f5f5f5f5f5f60c0878903121561324f5761324e612da1565b5b5f61325c89828a0161301d565b965050602061326d89828a01612dc4565b955050604061327e89828a01612dc4565b945050606061328f89828a01612e71565b93505060806132a089828a01613221565b92505060a06132b189828a01612dc4565b9150509295509295509295565b7f4e487b71000000000000000000000000000000000000000000000000000000005f52601160045260245ffd5b5f6132f582612da5565b915061330083612da5565b9250828203905081811115613318576133176132be565b5b92915050565b5f81905092915050565b50565b5f6133365f8361331e565b915061334182613328565b5f82019050919050565b5f6133558261332b565b9150819050919050565b5f6040820190506133725f830185612e03565b61337f6020830184612f20565b9392505050565b7f43616e6e6f7420616464206e617469766520746f6b656e0000000000000000005f82015250565b5f6133ba601783613066565b91506133c582613386565b602082019050919050565b5f6020820190508181035f8301526133e7816133ae565b9050919050565b5f6133f882612da5565b915061340383612da5565b925082820261341181612da5565b91508282048414831517613428576134276132be565b5b5092915050565b7f4e487b71000000000000000000000000000000000000000000000000000000005f52601260045260245ffd5b5f61346682612da5565b915061347183612da5565b9250826134815761348061342f565b5b828204905092915050565b7f54726561737572792063616e6e6f74206265207a65726f2061646472657373005f82015250565b5f6134c0601f83613066565b91506134cb8261348c565b602082019050919050565b5f6020820190508181035f8301526134ed816134b4565b9050919050565b7f43616e6e6f742072656d6f7665206e617469766520746f6b656e0000000000005f82015250565b5f613528601a83613066565b9150613533826134f4565b602082019050919050565b5f6020820190508181035f8301526135558161351c565b9050919050565b7f4e487b71000000000000000000000000000000000000000000000000000000005f52603260045260245ffd5b5f61359382612f2f565b915060ff82036135a6576135a56132be565b5b600182019050919050565b7f4e487b71000000000000000000000000000000000000000000000000000000005f52604160045260245ffd5b5f6135e882612da5565b91506135f383612da5565b925082820190508082111561360b5761360a6132be565b5b92915050565b5f61361b82612da5565b91507fffffffffffffffffffffffffffffffffffffffffffffffffffffffffffffffff820361364d5761364c6132be565b5b600182019050919050565b5f60c08201905061366b5f830189612ef7565b6136786020830188612e03565b6136856040830187612e03565b6136926060830186612f20565b61369f6080830185612f3b565b6136ac60a0830184612e03565b979650505050505050565b5f6040820190506136ca5f830185612f20565b6136d76020830184612e03565b9392505050565b5f6060820190506136f15f830186612f20565b6136fe6020830185612f20565b61370b6040830184612e03565b94935050505056fea26469706673582212206ebee2356b48bc2e59c344978003844d71665a4858d363b29105804957632fa464736f6c634300081c0033","linkReferences":{}},"methodIdentifiers":{"addAllowedToken(address)":"4178617f","allowedTokens(address)":"e744092e","bytes32ToString(bytes32)":"9201de55","createMilestone(bytes32,uint256,uint256,address,uint8,uint256)":"fd0e7ba9","deposit(uint256)":"b6b55f25","depositToken(uint256,uint256)":"9d2d04d1","emergencyWithdraw(uint256)":"5312ea8e","getMilestoneCount(address)":"435a81e7","getMilestoneDetails(address,uint256)":"49e44687","getUserTokenSavings(address,address)":"a9aa2fda","isTokenAllowed(address)":"f9eaee0d","milestones(address,uint256)":"c7a892bf","minSavingsAmount()":"c3ba7ecd","owner()":"8da5cb5b","pause()":"8456cb59","paused()":"5c975abb","platformFee()":"26232a2e","removeAllowedToken(address)":"90469a9d","renounceOwnership()":"715018a6","setMinSavingsAmount(uint256)":"e833445e","setPlatformFee(uint256)":"12e8e2c3","setTreasuryAddress(address)":"6605bfda","setWithdrawalPenalty(uint256)":"7faaa6c1","transferOwnership(address)":"f2fde38b","treasuryAddress()":"c5f956af","unpause()":"3f4ba83a","users(address)":"a87430ba","withdraw(uint256)":"2e1a7d4d","withdrawalPenalty()":"a2468c19"},"id":33}